{
    "address": "0xe7f1725E7734CE288F8367e1Bb143E90bb3F0512",
    "abi": [
        {
            "inputs": [],
            "name": "TokenMarketplace__BuyOrderExisted",
            "type": "error"
        },
        {
            "inputs": [],
            "name": "TokenMarketplace__BuyOrderNotExist",
            "type": "error"
        },
        {
            "inputs": [],
            "name": "TokenMarketplace__InsufficientAllowance",
            "type": "error"
        },
        {
            "inputs": [],
            "name": "TokenMarketplace__InsufficientAmount",
            "type": "error"
        },
        {
            "inputs": [],
            "name": "TokenMarketplace__InvalidIndex",
            "type": "error"
        },
        {
            "inputs": [],
            "name": "TokenMarketplace__InvalidPrice",
            "type": "error"
        },
        {
            "inputs": [],
            "name": "TokenMarketplace__NotOwner",
            "type": "error"
        },
        {
            "inputs": [],
            "name": "TokenMarketplace__SellOrderExisted",
            "type": "error"
        },
        {
            "inputs": [],
            "name": "TokenMarketplace__SellOrderNotExist",
            "type": "error"
        },
        {
            "anonymous": false,
            "inputs": [
                {
                    "indexed": true,
                    "internalType": "address",
                    "name": "owner",
                    "type": "address"
                },
                {
                    "indexed": true,
                    "internalType": "address",
                    "name": "tokenAddress",
                    "type": "address"
                },
                {
                    "indexed": false,
                    "internalType": "bool",
                    "name": "isBuyOrder",
                    "type": "bool"
                }
            ],
            "name": "OrderCanceled",
            "type": "event"
        },
        {
            "anonymous": false,
            "inputs": [
                {
                    "indexed": true,
                    "internalType": "address",
                    "name": "owner",
                    "type": "address"
                },
                {
                    "indexed": true,
                    "internalType": "address",
                    "name": "traderMatched",
                    "type": "address"
                },
                {
                    "indexed": true,
                    "internalType": "address",
                    "name": "tokenAddress",
                    "type": "address"
                },
                {
                    "indexed": false,
                    "internalType": "uint256",
                    "name": "amount",
                    "type": "uint256"
                },
                {
                    "indexed": false,
                    "internalType": "uint256",
                    "name": "price",
                    "type": "uint256"
                },
                {
                    "indexed": false,
                    "internalType": "bool",
                    "name": "isBuyOrder",
                    "type": "bool"
                }
            ],
            "name": "OrderMatched",
            "type": "event"
        },
        {
            "anonymous": false,
            "inputs": [
                {
                    "indexed": true,
                    "internalType": "address",
                    "name": "owner",
                    "type": "address"
                },
                {
                    "indexed": true,
                    "internalType": "address",
                    "name": "tokenAddress",
                    "type": "address"
                },
                {
                    "indexed": false,
                    "internalType": "uint256",
                    "name": "amount",
                    "type": "uint256"
                },
                {
                    "indexed": false,
                    "internalType": "uint256",
                    "name": "price",
                    "type": "uint256"
                },
                {
                    "indexed": false,
                    "internalType": "bool",
                    "name": "isBuyOrder",
                    "type": "bool"
                }
            ],
            "name": "OrderPlaced",
            "type": "event"
        },
        {
            "inputs": [
                {
                    "internalType": "address",
                    "name": "owner",
                    "type": "address"
                },
                {
                    "internalType": "address",
                    "name": "tokenAddress",
                    "type": "address"
                },
                {
                    "internalType": "bool",
                    "name": "isBuyOrder",
                    "type": "bool"
                }
            ],
            "name": "cancelOrder",
            "outputs": [],
            "stateMutability": "nonpayable",
            "type": "function"
        },
        {
            "inputs": [],
            "name": "getBuyOrderCount",
            "outputs": [
                {
                    "internalType": "uint256",
                    "name": "",
                    "type": "uint256"
                }
            ],
            "stateMutability": "view",
            "type": "function"
        },
        {
            "inputs": [
                {
                    "internalType": "address",
                    "name": "owner",
                    "type": "address"
                },
                {
                    "internalType": "address",
                    "name": "tokenAddress",
                    "type": "address"
                }
            ],
            "name": "getDetailBuyOrder",
            "outputs": [
                {
                    "components": [
                        {
                            "internalType": "uint256",
                            "name": "amount",
                            "type": "uint256"
                        },
                        {
                            "internalType": "uint256",
                            "name": "price",
                            "type": "uint256"
                        }
                    ],
                    "internalType": "struct TokenMarketplace.OrderDetail",
                    "name": "",
                    "type": "tuple"
                }
            ],
            "stateMutability": "view",
            "type": "function"
        },
        {
            "inputs": [
                {
                    "internalType": "address",
                    "name": "owner",
                    "type": "address"
                },
                {
                    "internalType": "address",
                    "name": "tokenAddress",
                    "type": "address"
                }
            ],
            "name": "getDetailSellOrder",
            "outputs": [
                {
                    "components": [
                        {
                            "internalType": "uint256",
                            "name": "amount",
                            "type": "uint256"
                        },
                        {
                            "internalType": "uint256",
                            "name": "price",
                            "type": "uint256"
                        }
                    ],
                    "internalType": "struct TokenMarketplace.OrderDetail",
                    "name": "",
                    "type": "tuple"
                }
            ],
            "stateMutability": "view",
            "type": "function"
        },
        {
            "inputs": [],
            "name": "getSellOrderCount",
            "outputs": [
                {
                    "internalType": "uint256",
                    "name": "",
                    "type": "uint256"
                }
            ],
            "stateMutability": "view",
            "type": "function"
        },
        {
            "inputs": [
                {
                    "internalType": "uint256",
                    "name": "orderIndex",
                    "type": "uint256"
                },
                {
                    "internalType": "bool",
                    "name": "isBuyOrder",
                    "type": "bool"
                }
            ],
            "name": "getUserOrder",
            "outputs": [
                {
                    "components": [
                        {
                            "internalType": "address",
                            "name": "owner",
                            "type": "address"
                        },
                        {
                            "internalType": "address",
                            "name": "tokenAddress",
                            "type": "address"
                        }
                    ],
                    "internalType": "struct TokenMarketplace.UserOrder",
                    "name": "",
                    "type": "tuple"
                }
            ],
            "stateMutability": "view",
            "type": "function"
        },
        {
            "inputs": [
                {
                    "internalType": "address",
                    "name": "owner",
                    "type": "address"
                },
                {
                    "internalType": "address",
                    "name": "tokenAddress",
                    "type": "address"
                },
                {
                    "internalType": "bool",
                    "name": "isBuyOrder",
                    "type": "bool"
                }
            ],
            "name": "isOnOrderBook",
            "outputs": [
                {
                    "internalType": "bool",
                    "name": "",
                    "type": "bool"
                }
            ],
            "stateMutability": "view",
            "type": "function"
        },
        {
            "inputs": [
                {
                    "internalType": "address",
                    "name": "tokenAddress",
                    "type": "address"
                },
                {
                    "internalType": "uint256",
                    "name": "amount",
                    "type": "uint256"
                }
            ],
            "name": "placeBuyOrder",
            "outputs": [],
            "stateMutability": "payable",
            "type": "function"
        },
        {
            "inputs": [
                {
                    "internalType": "address",
                    "name": "tokenAddress",
                    "type": "address"
                },
                {
                    "internalType": "uint256",
                    "name": "amount",
                    "type": "uint256"
                },
                {
                    "internalType": "uint256",
                    "name": "totalPrice",
                    "type": "uint256"
                }
            ],
            "name": "placeSellOrder",
            "outputs": [],
            "stateMutability": "nonpayable",
            "type": "function"
        }
    ],
    "transactionHash": "0x79ace4fcab56c78edfb4514e88ee5c9659be22a6ecc82bbe922a97e0f447eb50",
    "args": [],
    "numDeployments": 1,
    "solcInputHash": "18ece604915b1213e19b178963154bcb",
    "bytecode": "0x608060405234801561001057600080fd5b50612ac8806100206000396000f3fe6080604052600436106100865760003560e01c80632bcafffd116100595780632bcafffd1461015b578063684d35cf1461019857806376e86a9a146101d5578063b6265ec3146101fe578063f437b29b1461021a57610086565b8063022a11ea1461008b5780630528e57c146100c857806324aaf97f1461010557806329ce16bb14610130575b600080fd5b34801561009757600080fd5b506100b260048036038101906100ad9190612273565b610243565b6040516100bf91906122fb565b60405180910390f35b3480156100d457600080fd5b506100ef60048036038101906100ea9190612273565b610333565b6040516100fc91906122fb565b60405180910390f35b34801561011157600080fd5b5061011a610423565b6040516101279190612325565b60405180910390f35b34801561013c57600080fd5b5061014561042f565b6040516101529190612325565b60405180910390f35b34801561016757600080fd5b50610182600480360381019061017d9190612378565b61043c565b60405161018f91906123da565b60405180910390f35b3480156101a457600080fd5b506101bf60048036038101906101ba9190612421565b610623565b6040516101cc919061249f565b60405180910390f35b3480156101e157600080fd5b506101fc60048036038101906101f79190612378565b61078e565b005b610218600480360381019061021391906124ba565b610bb1565b005b34801561022657600080fd5b50610241600480360381019061023c91906124fa565b610e2f565b005b61024b6121b0565b6000600260008573ffffffffffffffffffffffffffffffffffffffff1673ffffffffffffffffffffffffffffffffffffffff16815260200190815260200160002060008473ffffffffffffffffffffffffffffffffffffffff1673ffffffffffffffffffffffffffffffffffffffff1681526020019081526020016000206040518060400160405290816000820154815260200160018201548152505090506102f3816111e4565b610329576040517fd80c329700000000000000000000000000000000000000000000000000000000815260040160405180910390fd5b8091505092915050565b61033b6121b0565b6000600360008573ffffffffffffffffffffffffffffffffffffffff1673ffffffffffffffffffffffffffffffffffffffff16815260200190815260200160002060008473ffffffffffffffffffffffffffffffffffffffff1673ffffffffffffffffffffffffffffffffffffffff1681526020019081526020016000206040518060400160405290816000820154815260200160018201548152505090506103e3816111e4565b610419576040517fb915a49100000000000000000000000000000000000000000000000000000000815260040160405180910390fd5b8091505092915050565b60008080549050905090565b6000600180549050905090565b6000808261044b57600061044e565b60015b805480602002602001604051908101604052809291908181526020016000905b8282101561054c57838290600052602060002090600202016040518060400160405290816000820160009054906101000a900473ffffffffffffffffffffffffffffffffffffffff1673ffffffffffffffffffffffffffffffffffffffff1673ffffffffffffffffffffffffffffffffffffffff1681526020016001820160009054906101000a900473ffffffffffffffffffffffffffffffffffffffff1673ffffffffffffffffffffffffffffffffffffffff1673ffffffffffffffffffffffffffffffffffffffff16815250508152602001906001019061046e565b5050505090506000805b82518110156106165760008382815181106105745761057361254d565b5b602002602001015190508773ffffffffffffffffffffffffffffffffffffffff16816000015173ffffffffffffffffffffffffffffffffffffffff161415806105ed57508673ffffffffffffffffffffffffffffffffffffffff16816020015173ffffffffffffffffffffffffffffffffffffffff1614155b156105f85750610602565b6001925050610616565b60018161060f91906125ab565b9050610556565b5080925050509392505050565b61062b6121ca565b60008261063d57600080549050610644565b6001805490505b905080841061067f576040517f5079a79700000000000000000000000000000000000000000000000000000000815260040160405180910390fd5b826106ab57600084815481106106985761069761254d565b5b90600052602060002090600202016106ce565b600184815481106106bf576106be61254d565b5b90600052602060002090600202015b6040518060400160405290816000820160009054906101000a900473ffffffffffffffffffffffffffffffffffffffff1673ffffffffffffffffffffffffffffffffffffffff1673ffffffffffffffffffffffffffffffffffffffff1681526020016001820160009054906101000a900473ffffffffffffffffffffffffffffffffffffffff1673ffffffffffffffffffffffffffffffffffffffff1673ffffffffffffffffffffffffffffffffffffffff168152505091505092915050565b8273ffffffffffffffffffffffffffffffffffffffff163373ffffffffffffffffffffffffffffffffffffffff16146107f3576040517f7c76691600000000000000000000000000000000000000000000000000000000815260040160405180910390fd5b600081610801576000610804565b60015b805480602002602001604051908101604052809291908181526020016000905b8282101561090257838290600052602060002090600202016040518060400160405290816000820160009054906101000a900473ffffffffffffffffffffffffffffffffffffffff1673ffffffffffffffffffffffffffffffffffffffff1673ffffffffffffffffffffffffffffffffffffffff1681526020016001820160009054906101000a900473ffffffffffffffffffffffffffffffffffffffff1673ffffffffffffffffffffffffffffffffffffffff1673ffffffffffffffffffffffffffffffffffffffff168152505081526020019060010190610824565b50505050905060008261099057600260008673ffffffffffffffffffffffffffffffffffffffff1673ffffffffffffffffffffffffffffffffffffffff16815260200190815260200160002060008573ffffffffffffffffffffffffffffffffffffffff1673ffffffffffffffffffffffffffffffffffffffff168152602001908152602001600020610a0d565b600360008673ffffffffffffffffffffffffffffffffffffffff1673ffffffffffffffffffffffffffffffffffffffff16815260200190815260200160002060008573ffffffffffffffffffffffffffffffffffffffff1673ffffffffffffffffffffffffffffffffffffffff1681526020019081526020016000205b604051806040016040529081600082015481526020016001820154815250509050610a37816111e4565b610aa5578215610a73576040517fb915a49100000000000000000000000000000000000000000000000000000000815260040160405180910390fd5b6040517fd80c329700000000000000000000000000000000000000000000000000000000815260040160405180910390fd5b60005b8251811015610ba9578573ffffffffffffffffffffffffffffffffffffffff16838281518110610adb57610ada61254d565b5b60200260200101516000015173ffffffffffffffffffffffffffffffffffffffff16141580610b5457508473ffffffffffffffffffffffffffffffffffffffff16838281518110610b2f57610b2e61254d565b5b60200260200101516020015173ffffffffffffffffffffffffffffffffffffffff1614155b610b95578315610b7357610b6e8687878560000151611205565b610b83565b610b8286868460000151611391565b5b610b908686858488611415565b610ba9565b600181610ba291906125ab565b9050610aa8565b505050505050565b6000600360003373ffffffffffffffffffffffffffffffffffffffff1673ffffffffffffffffffffffffffffffffffffffff16815260200190815260200160002060008473ffffffffffffffffffffffffffffffffffffffff1673ffffffffffffffffffffffffffffffffffffffff1681526020019081526020016000209050610c5981604051806040016040529081600082015481526020016001820154815250506111e4565b15610c90576040517f787ee7b500000000000000000000000000000000000000000000000000000000815260040160405180910390fd5b60008390506000610ca2828534611883565b9050600160405180604001604052803373ffffffffffffffffffffffffffffffffffffffff1681526020018773ffffffffffffffffffffffffffffffffffffffff16815250908060018154018082558091505060019003906000526020600020906002020160009091909190915060008201518160000160006101000a81548173ffffffffffffffffffffffffffffffffffffffff021916908373ffffffffffffffffffffffffffffffffffffffff16021790555060208201518160010160006101000a81548173ffffffffffffffffffffffffffffffffffffffff021916908373ffffffffffffffffffffffffffffffffffffffff16021790555050508383600001819055508083600101819055508473ffffffffffffffffffffffffffffffffffffffff163373ffffffffffffffffffffffffffffffffffffffff167fcdc1376319b8668d71932899a09da0a09a630ba01bf9736b0c291f308412416486846001604051610e14939291906125df565b60405180910390a3610e2833866001611a42565b5050505050565b6000600260003373ffffffffffffffffffffffffffffffffffffffff1673ffffffffffffffffffffffffffffffffffffffff16815260200190815260200160002060008573ffffffffffffffffffffffffffffffffffffffff1673ffffffffffffffffffffffffffffffffffffffff1681526020019081526020016000209050610ed781604051806040016040529081600082015481526020016001820154815250506111e4565b15610f0e576040517f5106a74a00000000000000000000000000000000000000000000000000000000815260040160405180910390fd5b60008490506000610f20828686611883565b9050848273ffffffffffffffffffffffffffffffffffffffff1663dd62ed3e33306040518363ffffffff1660e01b8152600401610f5e929190612625565b602060405180830381865afa158015610f7b573d6000803e3d6000fd5b505050506040513d601f19601f82011682018060405250810190610f9f9190612663565b1015610fd7576040517ffa33d36b00000000000000000000000000000000000000000000000000000000815260040160405180910390fd5b8573ffffffffffffffffffffffffffffffffffffffff166323b872dd3330886040518463ffffffff1660e01b815260040161101493929190612690565b6020604051808303816000875af1158015611033573d6000803e3d6000fd5b505050506040513d601f19601f8201168201806040525081019061105791906126dc565b50600060405180604001604052803373ffffffffffffffffffffffffffffffffffffffff1681526020018873ffffffffffffffffffffffffffffffffffffffff16815250908060018154018082558091505060019003906000526020600020906002020160009091909190915060008201518160000160006101000a81548173ffffffffffffffffffffffffffffffffffffffff021916908373ffffffffffffffffffffffffffffffffffffffff16021790555060208201518160010160006101000a81548173ffffffffffffffffffffffffffffffffffffffff021916908373ffffffffffffffffffffffffffffffffffffffff16021790555050508483600001819055508083600101819055508573ffffffffffffffffffffffffffffffffffffffff163373ffffffffffffffffffffffffffffffffffffffff167fcdc1376319b8668d71932899a09da0a09a630ba01bf9736b0c291f3084124164878460006040516111c8939291906125df565b60405180910390a36111dc33876000611a42565b505050505050565b60008082602001511415806111fe57506000826000015114155b9050919050565b60008373ffffffffffffffffffffffffffffffffffffffff168373ffffffffffffffffffffffffffffffffffffffff1663313ce5676040518163ffffffff1660e01b8152600401602060405180830381865afa158015611269573d6000803e3d6000fd5b505050506040513d601f19601f8201168201806040525081019061128d9190612742565b600a61129991906128a2565b836112a4919061291c565b600360008873ffffffffffffffffffffffffffffffffffffffff1673ffffffffffffffffffffffffffffffffffffffff16815260200190815260200160002060008673ffffffffffffffffffffffffffffffffffffffff1673ffffffffffffffffffffffffffffffffffffffff1681526020019081526020016000206001015461132e919061294d565b60405161133a906129c0565b60006040518083038185875af1925050503d8060008114611377576040519150601f19603f3d011682016040523d82523d6000602084013e61137c565b606091505b505090508061138a57600080fd5b5050505050565b8173ffffffffffffffffffffffffffffffffffffffff1663a9059cbb84836040518363ffffffff1660e01b81526004016113cc9291906129d5565b6020604051808303816000875af11580156113eb573d6000803e3d6000fd5b505050506040513d601f19601f8201168201806040525081019061140f91906126dc565b50505050565b5b825182101561187c578473ffffffffffffffffffffffffffffffffffffffff168383815181106114495761144861254d565b5b60200260200101516000015173ffffffffffffffffffffffffffffffffffffffff161415806114c257508373ffffffffffffffffffffffffffffffffffffffff1683838151811061149d5761149c61254d565b5b60200260200101516020015173ffffffffffffffffffffffffffffffffffffffff1614155b611868576000816114d45760006114d7565b60015b90505b600184516114e891906129fe565b8310156115dc57836001846114fd91906125ab565b8151811061150e5761150d61254d565b5b60200260200101518184815481106115295761152861254d565b5b906000526020600020906002020160008201518160000160006101000a81548173ffffffffffffffffffffffffffffffffffffffff021916908373ffffffffffffffffffffffffffffffffffffffff16021790555060208201518160010160006101000a81548173ffffffffffffffffffffffffffffffffffffffff021916908373ffffffffffffffffffffffffffffffffffffffff1602179055509050506001836115d591906125ab565b92506114da565b80600185516115eb91906129fe565b815481106115fc576115fb61254d565b5b9060005260206000209060020201600080820160006101000a81549073ffffffffffffffffffffffffffffffffffffffff02191690556001820160006101000a81549073ffffffffffffffffffffffffffffffffffffffff021916905550508080548061166c5761166b612a32565b5b6001900381819060005260206000209060020201600080820160006101000a81549073ffffffffffffffffffffffffffffffffffffffff02191690556001820160006101000a81549073ffffffffffffffffffffffffffffffffffffffff021916905550509055811561176d57600360008773ffffffffffffffffffffffffffffffffffffffff1673ffffffffffffffffffffffffffffffffffffffff16815260200190815260200160002060008673ffffffffffffffffffffffffffffffffffffffff1673ffffffffffffffffffffffffffffffffffffffff168152602001908152602001600020600080820160009055600182016000905550506117fd565b600260008773ffffffffffffffffffffffffffffffffffffffff1673ffffffffffffffffffffffffffffffffffffffff16815260200190815260200160002060008673ffffffffffffffffffffffffffffffffffffffff1673ffffffffffffffffffffffffffffffffffffffff168152602001908152602001600020600080820160009055600182016000905550505b8473ffffffffffffffffffffffffffffffffffffffff168673ffffffffffffffffffffffffffffffffffffffff167f15b7f24660ad5eea79a12fdea20c1de15711c8124507a0a6e5bd3103e79536398460405161185a91906123da565b60405180910390a35061187c565b60018261187591906125ab565b9150611416565b5050505050565b600080831080611919575060008473ffffffffffffffffffffffffffffffffffffffff1663313ce5676040518163ffffffff1660e01b8152600401602060405180830381865afa1580156118db573d6000803e3d6000fd5b505050506040513d601f19601f820116820180604052508101906118ff9190612742565b600a61190b91906128a2565b846119169190612a61565b14155b15611950576040517faa41083400000000000000000000000000000000000000000000000000000000815260040160405180910390fd5b60008473ffffffffffffffffffffffffffffffffffffffff1663313ce5676040518163ffffffff1660e01b8152600401602060405180830381865afa15801561199d573d6000803e3d6000fd5b505050506040513d601f19601f820116820180604052508101906119c19190612742565b600a6119cd91906128a2565b846119d8919061291c565b905060008314806119f55750600081846119f29190612a61565b14155b15611a2c576040517f221fd0b200000000000000000000000000000000000000000000000000000000815260040160405180910390fd5b8083611a38919061291c565b9150509392505050565b600081611aca57600260008573ffffffffffffffffffffffffffffffffffffffff1673ffffffffffffffffffffffffffffffffffffffff16815260200190815260200160002060008473ffffffffffffffffffffffffffffffffffffffff1673ffffffffffffffffffffffffffffffffffffffff168152602001908152602001600020611b47565b600360008573ffffffffffffffffffffffffffffffffffffffff1673ffffffffffffffffffffffffffffffffffffffff16815260200190815260200160002060008473ffffffffffffffffffffffffffffffffffffffff1673ffffffffffffffffffffffffffffffffffffffff1681526020019081526020016000205b9050600082611b57576001611b5a565b60005b805480602002602001604051908101604052809291908181526020016000905b82821015611c5857838290600052602060002090600202016040518060400160405290816000820160009054906101000a900473ffffffffffffffffffffffffffffffffffffffff1673ffffffffffffffffffffffffffffffffffffffff1673ffffffffffffffffffffffffffffffffffffffff1681526020016001820160009054906101000a900473ffffffffffffffffffffffffffffffffffffffff1673ffffffffffffffffffffffffffffffffffffffff1673ffffffffffffffffffffffffffffffffffffffff168152505081526020019060010190611b7a565b50505050905060005b815181101561218f576000828281518110611c7f57611c7e61254d565b5b60200260200101519050600085611d195760036000836000015173ffffffffffffffffffffffffffffffffffffffff1673ffffffffffffffffffffffffffffffffffffffff1681526020019081526020016000206000836020015173ffffffffffffffffffffffffffffffffffffffff1673ffffffffffffffffffffffffffffffffffffffff168152602001908152602001600020611d9e565b60026000836000015173ffffffffffffffffffffffffffffffffffffffff1673ffffffffffffffffffffffffffffffffffffffff1681526020019081526020016000206000836020015173ffffffffffffffffffffffffffffffffffffffff1673ffffffffffffffffffffffffffffffffffffffff1681526020019081526020016000205b6040518060400160405290816000820154815260200160018201548152505090508060200151856001015414611dd557505061217b565b6000611de986600001548360000151612197565b9050600087611dfc578360000151611dfe565b895b9050600088611e0d578a611e13565b84600001515b9050611e20828b85611391565b611e2c82828c86611205565b8815611ed5578260026000876000015173ffffffffffffffffffffffffffffffffffffffff1673ffffffffffffffffffffffffffffffffffffffff1681526020019081526020016000206000876020015173ffffffffffffffffffffffffffffffffffffffff1673ffffffffffffffffffffffffffffffffffffffff1681526020019081526020016000206000016000828254611ec991906129fe565b92505081905550611f74565b8260036000876000015173ffffffffffffffffffffffffffffffffffffffff1673ffffffffffffffffffffffffffffffffffffffff1681526020019081526020016000206000876020015173ffffffffffffffffffffffffffffffffffffffff1673ffffffffffffffffffffffffffffffffffffffff1681526020019081526020016000206000016000828254611f6c91906129fe565b925050819055505b82886000016000828254611f8891906129fe565b925050819055508973ffffffffffffffffffffffffffffffffffffffff16856000015173ffffffffffffffffffffffffffffffffffffffff168c73ffffffffffffffffffffffffffffffffffffffff167ff5940951125ac54a49908df6abba8d459967e5b8c77ac29b071d53e62cca8382868c600101548e60405161200f939291906125df565b60405180910390a4600083856000015161202991906129fe565b036120415761204085600001518b89898d15611415565b5b60008860000154036121755761216b8b8b8b61205e576000612061565b60015b805480602002602001604051908101604052809291908181526020016000905b8282101561215f57838290600052602060002090600202016040518060400160405290816000820160009054906101000a900473ffffffffffffffffffffffffffffffffffffffff1673ffffffffffffffffffffffffffffffffffffffff1673ffffffffffffffffffffffffffffffffffffffff1681526020016001820160009054906101000a900473ffffffffffffffffffffffffffffffffffffffff1673ffffffffffffffffffffffffffffffffffffffff1673ffffffffffffffffffffffffffffffffffffffff168152505081526020019060010190612081565b5050505060008d611415565b505050505061218f565b50505050505b60018161218891906125ab565b9050611c61565b505050505050565b60008183106121a657816121a8565b825b905092915050565b604051806040016040528060008152602001600081525090565b6040518060400160405280600073ffffffffffffffffffffffffffffffffffffffff168152602001600073ffffffffffffffffffffffffffffffffffffffff1681525090565b600080fd5b600073ffffffffffffffffffffffffffffffffffffffff82169050919050565b600061224082612215565b9050919050565b61225081612235565b811461225b57600080fd5b50565b60008135905061226d81612247565b92915050565b6000806040838503121561228a57612289612210565b5b60006122988582860161225e565b92505060206122a98582860161225e565b9150509250929050565b6000819050919050565b6122c6816122b3565b82525050565b6040820160008201516122e260008501826122bd565b5060208201516122f560208501826122bd565b50505050565b600060408201905061231060008301846122cc565b92915050565b61231f816122b3565b82525050565b600060208201905061233a6000830184612316565b92915050565b60008115159050919050565b61235581612340565b811461236057600080fd5b50565b6000813590506123728161234c565b92915050565b60008060006060848603121561239157612390612210565b5b600061239f8682870161225e565b93505060206123b08682870161225e565b92505060406123c186828701612363565b9150509250925092565b6123d481612340565b82525050565b60006020820190506123ef60008301846123cb565b92915050565b6123fe816122b3565b811461240957600080fd5b50565b60008135905061241b816123f5565b92915050565b6000806040838503121561243857612437612210565b5b60006124468582860161240c565b925050602061245785828601612363565b9150509250929050565b61246a81612235565b82525050565b6040820160008201516124866000850182612461565b5060208201516124996020850182612461565b50505050565b60006040820190506124b46000830184612470565b92915050565b600080604083850312156124d1576124d0612210565b5b60006124df8582860161225e565b92505060206124f08582860161240c565b9150509250929050565b60008060006060848603121561251357612512612210565b5b60006125218682870161225e565b93505060206125328682870161240c565b92505060406125438682870161240c565b9150509250925092565b7f4e487b7100000000000000000000000000000000000000000000000000000000600052603260045260246000fd5b7f4e487b7100000000000000000000000000000000000000000000000000000000600052601160045260246000fd5b60006125b6826122b3565b91506125c1836122b3565b92508282019050808211156125d9576125d861257c565b5b92915050565b60006060820190506125f46000830186612316565b6126016020830185612316565b61260e60408301846123cb565b949350505050565b61261f81612235565b82525050565b600060408201905061263a6000830185612616565b6126476020830184612616565b9392505050565b60008151905061265d816123f5565b92915050565b60006020828403121561267957612678612210565b5b60006126878482850161264e565b91505092915050565b60006060820190506126a56000830186612616565b6126b26020830185612616565b6126bf6040830184612316565b949350505050565b6000815190506126d68161234c565b92915050565b6000602082840312156126f2576126f1612210565b5b6000612700848285016126c7565b91505092915050565b600060ff82169050919050565b61271f81612709565b811461272a57600080fd5b50565b60008151905061273c81612716565b92915050565b60006020828403121561275857612757612210565b5b60006127668482850161272d565b91505092915050565b60008160011c9050919050565b6000808291508390505b60018511156127c6578086048111156127a2576127a161257c565b5b60018516156127b15780820291505b80810290506127bf8561276f565b9450612786565b94509492505050565b6000826127df576001905061289b565b816127ed576000905061289b565b8160018114612803576002811461280d5761283c565b600191505061289b565b60ff84111561281f5761281e61257c565b5b8360020a9150848211156128365761283561257c565b5b5061289b565b5060208310610133831016604e8410600b84101617156128715782820a90508381111561286c5761286b61257c565b5b61289b565b61287e848484600161277c565b925090508184048111156128955761289461257c565b5b81810290505b9392505050565b60006128ad826122b3565b91506128b883612709565b92506128e57fffffffffffffffffffffffffffffffffffffffffffffffffffffffffffffffff84846127cf565b905092915050565b7f4e487b7100000000000000000000000000000000000000000000000000000000600052601260045260246000fd5b6000612927826122b3565b9150612932836122b3565b925082612942576129416128ed565b5b828204905092915050565b6000612958826122b3565b9150612963836122b3565b9250828202612971816122b3565b915082820484148315176129885761298761257c565b5b5092915050565b600081905092915050565b50565b60006129aa60008361298f565b91506129b58261299a565b600082019050919050565b60006129cb8261299d565b9150819050919050565b60006040820190506129ea6000830185612616565b6129f76020830184612316565b9392505050565b6000612a09826122b3565b9150612a14836122b3565b9250828203905081811115612a2c57612a2b61257c565b5b92915050565b7f4e487b7100000000000000000000000000000000000000000000000000000000600052603160045260246000fd5b6000612a6c826122b3565b9150612a77836122b3565b925082612a8757612a866128ed565b5b82820690509291505056fea264697066735822122065083e5f4c48b6d24124a0d32ab10f69abe33ab4344cea96c4fbdef07f92b2f064736f6c63430008120033",
    "devdoc": {
        "author": "Chuong Thai",
        "kind": "dev",
        "methods": {
            "cancelOrder(address,address,bool)": {
                "details": "remove order out of order book and send back money or token to owner"
            },
            "getBuyOrderCount()": {
                "details": "return number of buy order"
            },
            "getDetailBuyOrder(address,address)": {
                "details": "return detail buy order"
            },
            "getDetailSellOrder(address,address)": {
                "details": "return detail sell order"
            },
            "getSellOrderCount()": {
                "details": "return number of sell order"
            },
            "getUserOrder(uint256,bool)": {
                "details": "return user order"
            },
            "isOnOrderBook(address,address,bool)": {
                "details": "check if order is still on orderbook"
            },
            "placeBuyOrder(address,uint256)": {
                "details": "Place a buy order to sell order book Takes money from sender Emits a {OrderPlaced} event"
            },
            "placeSellOrder(address,uint256,uint256)": {
                "details": "Place a sell order to sell order book Takes tokens from sender Emits a {OrderPlaced} event"
            }
        },
        "title": "A simple version of token marketplace",
        "version": 1
    },
    "userdoc": {
        "kind": "user",
        "methods": {},
        "notice": "This contract for creating a token marketplace with simple order matching algorithm",
        "version": 1
    },
    "storageLayout": {
        "storage": [
            {
                "astId": 158,
                "contract": "contracts/TokenMarketplace.sol:TokenMarketplace",
                "label": "_userSellOrders",
                "offset": 0,
                "slot": "0",
                "type": "t_array(t_struct(UserOrder)115_storage)dyn_storage"
            },
            {
                "astId": 162,
                "contract": "contracts/TokenMarketplace.sol:TokenMarketplace",
                "label": "_userBuyOrders",
                "offset": 0,
                "slot": "1",
                "type": "t_array(t_struct(UserOrder)115_storage)dyn_storage"
            },
            {
                "astId": 169,
                "contract": "contracts/TokenMarketplace.sol:TokenMarketplace",
                "label": "_sellOrderDetailBook",
                "offset": 0,
                "slot": "2",
                "type": "t_mapping(t_address,t_mapping(t_address,t_struct(OrderDetail)120_storage))"
            },
            {
                "astId": 176,
                "contract": "contracts/TokenMarketplace.sol:TokenMarketplace",
                "label": "_buyOrderDetailBook",
                "offset": 0,
                "slot": "3",
                "type": "t_mapping(t_address,t_mapping(t_address,t_struct(OrderDetail)120_storage))"
            }
        ],
        "types": {
            "t_address": {
                "encoding": "inplace",
                "label": "address",
                "numberOfBytes": "20"
            },
            "t_array(t_struct(UserOrder)115_storage)dyn_storage": {
                "base": "t_struct(UserOrder)115_storage",
                "encoding": "dynamic_array",
                "label": "struct TokenMarketplace.UserOrder[]",
                "numberOfBytes": "32"
            },
            "t_mapping(t_address,t_mapping(t_address,t_struct(OrderDetail)120_storage))": {
                "encoding": "mapping",
                "key": "t_address",
                "label": "mapping(address => mapping(address => struct TokenMarketplace.OrderDetail))",
                "numberOfBytes": "32",
                "value": "t_mapping(t_address,t_struct(OrderDetail)120_storage)"
            },
            "t_mapping(t_address,t_struct(OrderDetail)120_storage)": {
                "encoding": "mapping",
                "key": "t_address",
                "label": "mapping(address => struct TokenMarketplace.OrderDetail)",
                "numberOfBytes": "32",
                "value": "t_struct(OrderDetail)120_storage"
            },
            "t_struct(OrderDetail)120_storage": {
                "encoding": "inplace",
                "label": "struct TokenMarketplace.OrderDetail",
                "members": [
                    {
                        "astId": 117,
                        "contract": "contracts/TokenMarketplace.sol:TokenMarketplace",
                        "label": "amount",
                        "offset": 0,
                        "slot": "0",
                        "type": "t_uint256"
                    },
                    {
                        "astId": 119,
                        "contract": "contracts/TokenMarketplace.sol:TokenMarketplace",
                        "label": "price",
                        "offset": 0,
                        "slot": "1",
                        "type": "t_uint256"
                    }
                ],
                "numberOfBytes": "64"
            },
            "t_struct(UserOrder)115_storage": {
                "encoding": "inplace",
                "label": "struct TokenMarketplace.UserOrder",
                "members": [
                    {
                        "astId": 112,
                        "contract": "contracts/TokenMarketplace.sol:TokenMarketplace",
                        "label": "owner",
                        "offset": 0,
                        "slot": "0",
                        "type": "t_address"
                    },
                    {
                        "astId": 114,
                        "contract": "contracts/TokenMarketplace.sol:TokenMarketplace",
                        "label": "tokenAddress",
                        "offset": 0,
                        "slot": "1",
                        "type": "t_address"
                    }
                ],
                "numberOfBytes": "64"
            },
            "t_uint256": {
                "encoding": "inplace",
                "label": "uint256",
                "numberOfBytes": "32"
            }
        }
    }
}